{
  "_format": "hh-sol-artifact-1",
  "contractName": "Tutoring",
  "sourceName": "contracts/Tutoring.sol",
  "abi": [
    {
      "inputs": [
        {
          "internalType": "string",
          "name": "tutor",
          "type": "string"
        },
        {
          "internalType": "string",
          "name": "student",
          "type": "string"
        },
        {
          "internalType": "uint256",
          "name": "time",
          "type": "uint256"
        },
        {
          "internalType": "uint256",
          "name": "price",
          "type": "uint256"
        }
      ],
      "name": "bookSession",
      "outputs": [],
      "stateMutability": "nonpayable",
      "type": "function"
    },
    {
      "inputs": [
        {
          "internalType": "uint256",
          "name": "sessionId",
          "type": "uint256"
        }
      ],
      "name": "completeSession",
      "outputs": [],
      "stateMutability": "nonpayable",
      "type": "function"
    },
    {
      "inputs": [],
      "name": "sessionCount",
      "outputs": [
        {
          "internalType": "uint256",
          "name": "",
          "type": "uint256"
        }
      ],
      "stateMutability": "view",
      "type": "function"
    },
    {
      "inputs": [
        {
          "internalType": "uint256",
          "name": "",
          "type": "uint256"
        }
      ],
      "name": "sessions",
      "outputs": [
        {
          "internalType": "string",
          "name": "tutor",
          "type": "string"
        },
        {
          "internalType": "string",
          "name": "student",
          "type": "string"
        },
        {
          "internalType": "uint256",
          "name": "time",
          "type": "uint256"
        },
        {
          "internalType": "uint256",
          "name": "price",
          "type": "uint256"
        },
        {
          "internalType": "bool",
          "name": "completed",
          "type": "bool"
        }
      ],
      "stateMutability": "view",
      "type": "function"
    }
  ],
  "bytecode": "0x608060405234801561001057600080fd5b50610a30806100206000396000f3fe608060405234801561001057600080fd5b506004361061004c5760003560e01c80631f5754c01461005157806373cd83361461006d57806383c4b7a31461008b578063dfea2a1f146100bf575b600080fd5b61006b6004803603810190610066919061036e565b6100db565b005b61007561010c565b60405161008291906103aa565b60405180910390f35b6100a560048036038101906100a0919061036e565b610112565b6040516100b6959493929190610470565b60405180910390f35b6100d960048036038101906100d49190610606565b610265565b005b600160008083815260200190815260200160002060040160006101000a81548160ff02191690831515021790555050565b60015481565b6000602052806000526040600020600091509050806000018054610135906106d4565b80601f0160208091040260200160405190810160405280929190818152602001828054610161906106d4565b80156101ae5780601f10610183576101008083540402835291602001916101ae565b820191906000526020600020905b81548152906001019060200180831161019157829003601f168201915b5050505050908060010180546101c3906106d4565b80601f01602080910402602001604051908101604052809291908181526020018280546101ef906106d4565b801561023c5780601f106102115761010080835404028352916020019161023c565b820191906000526020600020905b81548152906001019060200180831161021f57829003601f168201915b5050505050908060020154908060030154908060040160009054906101000a900460ff16905085565b6040518060a0016040528085815260200184815260200183815260200182815260200160001515815250600080600154815260200190815260200160002060008201518160000190816102b891906108b1565b5060208201518160010190816102ce91906108b1565b50604082015181600201556060820151816003015560808201518160040160006101000a81548160ff02191690831515021790555090505060016000815480929190610319906109b2565b919050555050505050565b6000604051905090565b600080fd5b600080fd5b6000819050919050565b61034b81610338565b811461035657600080fd5b50565b60008135905061036881610342565b92915050565b6000602082840312156103845761038361032e565b5b600061039284828501610359565b91505092915050565b6103a481610338565b82525050565b60006020820190506103bf600083018461039b565b92915050565b600081519050919050565b600082825260208201905092915050565b60005b838110156103ff5780820151818401526020810190506103e4565b60008484015250505050565b6000601f19601f8301169050919050565b6000610427826103c5565b61043181856103d0565b93506104418185602086016103e1565b61044a8161040b565b840191505092915050565b60008115159050919050565b61046a81610455565b82525050565b600060a082019050818103600083015261048a818861041c565b9050818103602083015261049e818761041c565b90506104ad604083018661039b565b6104ba606083018561039b565b6104c76080830184610461565b9695505050505050565b600080fd5b600080fd5b7f4e487b7100000000000000000000000000000000000000000000000000000000600052604160045260246000fd5b6105138261040b565b810181811067ffffffffffffffff82111715610532576105316104db565b5b80604052505050565b6000610545610324565b9050610551828261050a565b919050565b600067ffffffffffffffff821115610571576105706104db565b5b61057a8261040b565b9050602081019050919050565b82818337600083830152505050565b60006105a96105a484610556565b61053b565b9050828152602081018484840111156105c5576105c46104d6565b5b6105d0848285610587565b509392505050565b600082601f8301126105ed576105ec6104d1565b5b81356105fd848260208601610596565b91505092915050565b600080600080608085870312156106205761061f61032e565b5b600085013567ffffffffffffffff81111561063e5761063d610333565b5b61064a878288016105d8565b945050602085013567ffffffffffffffff81111561066b5761066a610333565b5b610677878288016105d8565b935050604061068887828801610359565b925050606061069987828801610359565b91505092959194509250565b7f4e487b7100000000000000000000000000000000000000000000000000000000600052602260045260246000fd5b600060028204905060018216806106ec57607f821691505b6020821081036106ff576106fe6106a5565b5b50919050565b60008190508160005260206000209050919050565b60006020601f8301049050919050565b600082821b905092915050565b6000600883026107677fffffffffffffffffffffffffffffffffffffffffffffffffffffffffffffffff8261072a565b610771868361072a565b95508019841693508086168417925050509392505050565b6000819050919050565b60006107ae6107a96107a484610338565b610789565b610338565b9050919050565b6000819050919050565b6107c883610793565b6107dc6107d4826107b5565b848454610737565b825550505050565b600090565b6107f16107e4565b6107fc8184846107bf565b505050565b5b81811015610820576108156000826107e9565b600181019050610802565b5050565b601f8211156108655761083681610705565b61083f8461071a565b8101602085101561084e578190505b61086261085a8561071a565b830182610801565b50505b505050565b600082821c905092915050565b60006108886000198460080261086a565b1980831691505092915050565b60006108a18383610877565b9150826002028217905092915050565b6108ba826103c5565b67ffffffffffffffff8111156108d3576108d26104db565b5b6108dd82546106d4565b6108e8828285610824565b600060209050601f83116001811461091b5760008415610909578287015190505b6109138582610895565b86555061097b565b601f19841661092986610705565b60005b828110156109515784890151825560018201915060208501945060208101905061092c565b8683101561096e578489015161096a601f891682610877565b8355505b6001600288020188555050505b505050505050565b7f4e487b7100000000000000000000000000000000000000000000000000000000600052601160045260246000fd5b60006109bd82610338565b91507fffffffffffffffffffffffffffffffffffffffffffffffffffffffffffffffff82036109ef576109ee610983565b5b60018201905091905056fea26469706673582212207e3d360507b3538e35b9762baba7fc34e678eef9d345cd872e983dc55eca2dcb64736f6c63430008120033",
  "linkReferences": {},
  "deployedLinkReferences": {}
}